{
  "contractName": "Faucet",
  "abi": [
    {
      "inputs": [],
      "name": "numOfFunders",
      "outputs": [
        {
          "internalType": "uint256",
          "name": "",
          "type": "uint256"
        }
      ],
      "stateMutability": "view",
      "type": "function"
    },
    {
      "inputs": [],
      "name": "owner",
      "outputs": [
        {
          "internalType": "address",
          "name": "",
          "type": "address"
        }
      ],
      "stateMutability": "view",
      "type": "function"
    },
    {
      "stateMutability": "payable",
      "type": "receive"
    },
    {
      "inputs": [],
      "name": "addFunds",
      "outputs": [],
      "stateMutability": "payable",
      "type": "function"
    },
    {
      "inputs": [
        {
          "internalType": "uint8",
          "name": "index",
          "type": "uint8"
        }
      ],
      "name": "getFunderAtIndex",
      "outputs": [
        {
          "internalType": "address",
          "name": "",
          "type": "address"
        }
      ],
      "stateMutability": "view",
      "type": "function"
    },
    {
      "inputs": [],
      "name": "getAllFunders",
      "outputs": [
        {
          "internalType": "address[]",
          "name": "",
          "type": "address[]"
        }
      ],
      "stateMutability": "view",
      "type": "function"
    },
    {
      "inputs": [],
      "name": "test1",
      "outputs": [],
      "stateMutability": "nonpayable",
      "type": "function"
    },
    {
      "inputs": [
        {
          "internalType": "uint256",
          "name": "withdrawAmount",
          "type": "uint256"
        }
      ],
      "name": "withdraw",
      "outputs": [],
      "stateMutability": "nonpayable",
      "type": "function"
    }
  ],
  "bytecode": "0x608060405234801561001057600080fd5b50336000806101000a81548173ffffffffffffffffffffffffffffffffffffffff021916908373ffffffffffffffffffffffffffffffffffffffff1602179055506109a8806100606000396000f3fe6080604052600436106100745760003560e01c80636fbbb55d1161004e5780636fbbb55d146100fd5780638da5cb5b14610128578063a26759cb14610153578063af7f2c9b1461015d5761007b565b80630a93cf33146100805780632e1a7d4d146100bd5780636b59084d146100e65761007b565b3661007b57005b600080fd5b34801561008c57600080fd5b506100a760048036038101906100a29190610571565b610188565b6040516100b491906105df565b60405180910390f35b3480156100c957600080fd5b506100e460048036038101906100df9190610630565b6101c8565b005b3480156100f257600080fd5b506100fb61025f565b005b34801561010957600080fd5b506101126102ef565b60405161011f919061071b565b60405180910390f35b34801561013457600080fd5b5061013d6103e9565b60405161014a91906105df565b60405180910390f35b61015b61040d565b005b34801561016957600080fd5b5061017261052d565b60405161017f919061074c565b60405180910390f35b6000600360008360ff16815260200190815260200160002060009054906101000a900473ffffffffffffffffffffffffffffffffffffffff169050919050565b80670de0b6b3a7640000811115610214576040517f08c379a000000000000000000000000000000000000000000000000000000000815260040161020b906107ea565b60405180910390fd5b3373ffffffffffffffffffffffffffffffffffffffff166108fc839081150290604051600060405180830381858888f1935050505015801561025a573d6000803e3d6000fd5b505050565b60008054906101000a900473ffffffffffffffffffffffffffffffffffffffff1673ffffffffffffffffffffffffffffffffffffffff163373ffffffffffffffffffffffffffffffffffffffff16146102ed576040517f08c379a00000000000000000000000000000000000000000000000000000000081526004016102e49061087c565b60405180910390fd5b565b6060600060015467ffffffffffffffff81111561030f5761030e61089c565b5b60405190808252806020026020018201604052801561033d5781602001602082028036833780820191505090505b50905060005b6001548110156103e1576003600082815260200190815260200160002060009054906101000a900473ffffffffffffffffffffffffffffffffffffffff16828281518110610394576103936108cb565b5b602002602001019073ffffffffffffffffffffffffffffffffffffffff16908173ffffffffffffffffffffffffffffffffffffffff168152505080806103d990610929565b915050610343565b508091505090565b60008054906101000a900473ffffffffffffffffffffffffffffffffffffffff1681565b6000339050600260008273ffffffffffffffffffffffffffffffffffffffff1673ffffffffffffffffffffffffffffffffffffffff16815260200190815260200160002060009054906101000a900460ff1661052a5760006001600081548092919061047890610929565b9190505590506001600260008473ffffffffffffffffffffffffffffffffffffffff1673ffffffffffffffffffffffffffffffffffffffff16815260200190815260200160002060006101000a81548160ff021916908315150217905550816003600083815260200190815260200160002060006101000a81548173ffffffffffffffffffffffffffffffffffffffff021916908373ffffffffffffffffffffffffffffffffffffffff160217905550505b50565b60015481565b600080fd5b600060ff82169050919050565b61054e81610538565b811461055957600080fd5b50565b60008135905061056b81610545565b92915050565b60006020828403121561058757610586610533565b5b60006105958482850161055c565b91505092915050565b600073ffffffffffffffffffffffffffffffffffffffff82169050919050565b60006105c98261059e565b9050919050565b6105d9816105be565b82525050565b60006020820190506105f460008301846105d0565b92915050565b6000819050919050565b61060d816105fa565b811461061857600080fd5b50565b60008135905061062a81610604565b92915050565b60006020828403121561064657610645610533565b5b60006106548482850161061b565b91505092915050565b600081519050919050565b600082825260208201905092915050565b6000819050602082019050919050565b610692816105be565b82525050565b60006106a48383610689565b60208301905092915050565b6000602082019050919050565b60006106c88261065d565b6106d28185610668565b93506106dd83610679565b8060005b8381101561070e5781516106f58882610698565b9750610700836106b0565b9250506001810190506106e1565b5085935050505092915050565b6000602082019050818103600083015261073581846106bd565b905092915050565b610746816105fa565b82525050565b6000602082019050610761600083018461073d565b92915050565b600082825260208201905092915050565b7f576974686472617720616d6f756e74206d757374206265206c6573732074686160008201527f6e20312045544800000000000000000000000000000000000000000000000000602082015250565b60006107d4602783610767565b91506107df82610778565b604082019050919050565b60006020820190508181036000830152610803816107c7565b9050919050565b7f4f6e6c79206f776e65722063616e2063616c6c20746869732066756e6374696f60008201527f6e00000000000000000000000000000000000000000000000000000000000000602082015250565b6000610866602183610767565b91506108718261080a565b604082019050919050565b6000602082019050818103600083015261089581610859565b9050919050565b7f4e487b7100000000000000000000000000000000000000000000000000000000600052604160045260246000fd5b7f4e487b7100000000000000000000000000000000000000000000000000000000600052603260045260246000fd5b7f4e487b7100000000000000000000000000000000000000000000000000000000600052601160045260246000fd5b6000610934826105fa565b91507fffffffffffffffffffffffffffffffffffffffffffffffffffffffffffffffff821415610967576109666108fa565b5b60018201905091905056fea2646970667358221220224ba352f51030a225d5ddfeedcd36104bf4f899d6c0b29936736bdc2d0100dd64736f6c634300080b0033",
  "immutableReferences": {},
  "source": "// SPDX-License-Identifier: GPL-3.0\npragma solidity >=0.4.22 <0.9.0;\n\nimport './Owned.sol';\nimport './IFaucet.sol';\n\ncontract Faucet is Owned, IFaucet {\n\n    uint public numOfFunders;\n\n    mapping(address => bool) private funders;\n    mapping(uint => address) private lutFunders;\n\n    modifier limitWithdraw(uint withdrawAmount) {\n        require(withdrawAmount <= 1000000000000000000, 'Withdraw amount must be less than 1 ETH');\n        _;\n    }\n\n    receive() external payable {} \n\n    function addFunds() external override payable {\n        \n        address funder = msg.sender;\n        \n        if(!funders[funder]) {\n            uint index = numOfFunders++;\n            funders[funder] = true;\n            lutFunders[index] = funder;\n        }\n    }\n\n    function getFunderAtIndex(uint8 index) external view returns (address) {\n        return lutFunders[index];\n    }\n\n    function getAllFunders() external view returns (address[] memory) {\n        address[] memory _funders = new address[](numOfFunders);\n\n        for (uint i = 0; i < numOfFunders; i++) {\n            _funders[i] = lutFunders[i];\n        }\n\n        return _funders;\n    }\n\n    function test1() external onlyOwner {\n        //some code\n    }\n\n    function withdraw(uint withdrawAmount) external override limitWithdraw(withdrawAmount) {\n        payable(msg.sender).transfer(withdrawAmount);\n    }\n\n}\n\n// const instance = await Faucet.deployed()\n// instance.addFunds({value: 2000000000000000000, from: accounts[0]})\n// instance.addFunds({value: 2000000000000000000, from: accounts[1]})\n\n// instance.withdraw('500000000000000000', {from: accounts[1]})\n\n// instance.getFunderAtIndex(0)\n// instance.getAllFunders()",
  "sourcePath": "/Users/apple/Desktop/DApps/faucet/contracts/FausetContract.sol",
  "compiler": {
    "name": "solc",
    "version": "0.8.11+commit.d7f03943.Emscripten.clang"
  },
  "schemaVersion": "3.4.4",
  "updatedAt": "2021-12-31T09:28:11.570Z",
  "devdoc": {
    "kind": "dev",
    "methods": {},
    "version": 1
  },
  "userdoc": {
    "kind": "user",
    "methods": {},
    "version": 1
  }
}